:4000000000200020110000000B0200000B02000038B51C4A1C4B1D4D1A601D4B1A681023134000D12B602B68802B29D1194B9C78E4B2012C14D90021052000F091F80121AA
:40004000041C052000F08CF8E4B2C0B2002C03D0041E05D0032403E0441EA0410224241A00230220211C2B6000F07AF8002807D0012C05D8211C022000F072F800F0C4F83B
:4000800000F0A2FC6588EDAC380003409800002054000340AC0000200000000000000000000000000000000000000000000000000000000000000000000000000000000096
:4000C0000000000000000000000000000000000000000000000000000000000000000000CD010310626E0200AD11041D04000000000000000000000000000000000000006A
:4001000010B5064C2378002B07D1054B002B02D0044800E000BF0123237010BDC8000020000000004017000008B5084B002B03D00748084900E000BF07480368002B00D10C
:4001400008BD064B002BFBD09847F9E70000000040170000CC000020A800002000000000013800B50B282FD8C901494201F0A2FA06080A0C0E10141216191B20164B13E079
:40018000164B16E0164B0AE0164B12E0164B0BE0164B09E0164B02E0164B00E0164BC91814E0164B05E0164BC9180878C0B211E0144BC9180A7848788B7800021B0418438E
:4001C000CB7810431B0604E001BE00210B7848780002184300BDC046C0FF0100C1FF0100C5FF0100C9FF0100D0FF0100D1FF0100D6FF0100D2FF0100D4FF0100D8FF01001D
:40020000DCFF0100E0FF01000047FEE70122014B1A707047E400002070B5827943791202817A1A43457AC37A090229431B040B43191C037B84781B060B434678C1782402BF
:400240003443090421430C1C017909062143062400293FD0002B3DD0D201111C1E4D8031CE18AE4236D80C1C0021803300789B189C4204D0267801348919C9B2F8E74942B4
:40028000C9B20624884225D1101C8130FF30C6798379A8421ED841780578090229430F4DA94217D134021C43017A00230A2C0BD08B32FF320019824204D0147801321B1900
:4002C000DBB2F8E75B42DBB2CB1A5A1E934106245B421C4060B270BDFFFF01005943000008B500F0FEFC002311491A018A18111C127B0C31002A0ED1FF230B700D4B1A79D1
:40030000013AD2B21A715A79013AD2B25A715A79002A04D009E00133202BE5D105E09B79002B02D18022044B1A6000F0DEFC08BDE4000020E402002080E100E0024B18681E
:400340008007C00F7047C046040204400223044940000A689A43D2B2034013430B607047000204403821034AC00013688B43184310607047080204400423044980000A68B5
:400380009A43D2B2034013430B6070470003044008B53023584300F09BFC08BD70B5074D074A2B6C11899BB2041C161C8B4202D06420FFF7EDFF2C64348170BD000003408F
:4003C000E40200200123F7B53B4E3C4C7364A3710096009BDD6B6289ABB292B22D042D0C9A4202D3802149026D180027AD1AADB2638133483A018318197B0190C9B2FF2950
:4004000020D0043358688446681D844502D95868401B00E000205860019B9B189868002810D1FF261A1C1E7323790C32013BDBB223716379013BDBB263715368002B01D064
:40044000536898470137202FD3D16379DBB2002B1ED000221B4801991301CB18197BFF2904D099680433814200D258680132202AF1D1009A6389D26B9BB291B21204120C3C
:400480008B4202D3802149025218D31A9BB200E00C48053398429CD380B2A0816389C01880B2FFF77BFF0023A3716379002B02D18022054B1A60F7BD00000340E402002022
:4004C000E4000020C0FF000080E100E0034A044913689BB20B4313607047C0460CED00E00400FA051F2318401E3B8340181C014B1860704700E100E0152800D901BE034BF3
:400500008000C318186819607047C046400000200023F7B59A003D49032B01D83C4989583C4801338150262BF4D172B6FF223A4B12041A600022394B394D1A60394B08328D
:400540001A60394B2C321A60384A394B1A601222384B1A6000F0C5FB02222B68019013404ED11F1C0722344C236893432360012F01D1324B00E0324B07267F201B78314A0C
:40058000DBB21360304A31491368B3431360304A0B6812788343024013430B604D3800F097FB052223683220B3431343236000F08FFB06222368B34313432360012F03D149
:4005C0002B68043A13432B60019800F08EFB8022204B52001A60204A204B1A600023204A1360204A1360204A1360204B1A68002A00D11A6001211E4A13680B431360F7BD79
:400600002B68012793432B60ACE7C0460B0200000000000000000020000302400002024024000C400802044000030440804102000803044030001040080F0340BFF1FF0FA0
:40064000FDF1FF0F0C0F0340100F0340180F0340E4F1FF0F0002014000FF0080000001402800034008010140A00000209800002000001040F0B5022087B000F04DFD62B6A1
:4006800000F042FD0023B74CB748A373FFF7C4FD002801D00423A373B448FFF7BDFD002803D00822A37B1343A373B14EB14A33689BB2934206D1002301223360A37B1343AD
:4006C000A37303E13168AC4B89B2C9184A424A413368D1B2A94A9BB29B1858425841A37BC0B21A0717D400281AD10422134017D100291BD1FF2252021278002A06D19B4AEF
:400700009949D069CD69A84213D202E0012A00D025E1954A0EE00422134000D11DE1D5E00123924A002901D1002803D00021944A0CE00123918A9348914A814201D1002160
:4007400004E09148814202D0FA21890011808C4A937013889BB20193002B04D180333360FFF7B4FEB2E00023884A1370FF201901511801330873202BF8D1002280218020DD
:40078000834B2271834D62711960834B7F39AB63EB6C00060B43EB64EB6A0343EB6269647E4B7F497F4819607F4B80495A501A507F4A80489850EA6B029592B20298C06B93
:4007C00080B28242FAD0734AD26B90B205225A5080275A587F023A42FAD0029AD26B92B2904200D93A43121A228200225A5000F078FA1F22FF2303906448110145182D7B10
:40080000D7B2FF2D00D13B1C4018017B002909D12279FBB2013AD2B222716279013AD2B2627103E0013AE7D2FF2B4CD06846574A80881B01D118888000205F4D0F1D0D6116
:400840000873218A019841437960A179002932D10299C96B60798DB200281DD06089090480B2090CA84202D380256D024919D218091A906889B2091891609168A3890432FB
:40088000994218D253689BB2A3816389A089C01880B2FFF783FD0EE065817868474B984200D9181C80B2A081401980B2FFF776FD8022434B1A6023790133DBB223716379C7
:4008C0000133DBB26371039800F00FFA0023A57B8020291C0493059300F004FB6B0703D5802704A9FF0007E01F4B5F683F023F0C0137F901E031BFB22B0703D5802504AA37
:40090000ED0007E0194B5D682D022D0C0135EA01E032ADB2E02000F0EBFA381C291C00F003FB3023274A6382154B9A80DA802F221A8100F033FB237D144DDB0703D5FFF72C
:40094000CFFC00232B702B78002BF2D0FFF7C8FC80233360FFF7BAFDEBE7034AE2E60123024AE7E6E4020020C0FF010040FF0100980000204C420000CFBDFFFFCEBDFFFF3E
:40098000AC00002059430000FFFF0000E400002080E100E0000003406588EDAC5C000020C503000018D00000001000E010D0000014D000007FBB00000D020000C0FF0000DB
:4009C00000E100E0FF03000070B50F490F4B01394A1C15D000221E685C689D68A018AA4203D0B058A0500432F8E7021CDC68151AA54202D0002520C2F9E710330139E7E767
:400A000000F062FEFFF736FE010000008C170000034B1B7D1840431E9841C0B27047C046E4020020014B9B6C03607047FCF0FF0F8021044B8000C258490493680B43936071
:400A40007047C0464417000008B50C4A031C107D0E22002810D0073A00290DD0084A10890722984208D20748834205D8081C7932D90100F04FFE002250B208BDE402002092
:400A8000AC000020FF030000F0B56C4BABB01A7D01930E23002A00D1CCE0073B002900D1C8E0019B5A8A0723824200D9C2E0644A9488844203D2D288824200D0BAE0614A49
:400AC00007238218032A00D8B4E05F4E0C1C051EB54201D15D4F03E05D4B984209D15D4F381CFFF799FB0023984200D1FB690133E365002302930393B54200D992E00AA873
:400B0000211C802200F006FE534B9D4201D8534B00E0534B08937F2308AF7B60514C524E524B27603360C04623681B0F0F2B02D12368DBB205E022680023120F0A2A00D016
:400B400023680293029B0093002B6DD100F0C9F80199474A04AB18310492019105912360444B404A3360C04623681B0F0F2B02D11368DBB207E013681B0F9C466146009B7B
:400B80000A2900D013680393039B002B12D13A49344A216039493160C0462168090F0F2902D11368DBB204E01168090F0A2900D013680293029B002B17D1314A2D040892A8
:400BC000089A154308952F4D2760264A3560C04625682D0F0F2D02D11368DBB204E015682D0F0A2D00D013680293039B002B16D1254A26490692019A06AD07922560194AC7
:400C00003160C0462168090F0F2902D11368DBB204E01168090F0A2900D01368039300F064F801E004230293029A0523511E8A415242134058B22BB0F0BDC046E402002074
:400C4000AC00002006FCFFFFFF03000040FF0100FE030000C0FF0100FF010000B6D70000B6D70001080010400400104004000080B6E9000016000080B6E8000015000080F2
:400C8000B6D8000005000080B6EA000017000080044A002803D001238B40137500E010757047C046E402002008B5012804D00723022807D1044800E00448FFF7ADFA031EE6
:400CC00000D0062358B208BD40FF0100C0FF01000230800803D00138FDD1C046C046C0467047EFF3108072B6704780F310887047F8B50C24194F4443051CFFF7F2FF3C1993
:400D0000A279061C3B1C002A23D02278D2B2002A1FD1A188A06841180878391C8A310870391C8B310A70A188013189B2A180A188072900D9A28001222270997CAA40151CBD
:400D40000D4300209D74FFF717FBA379013BDBB2A371301CFFF7C9FFF8BDC0461803002070B50126104C304216D00025FFF7B9FF2570A379DBB2AB4209D10C4AD268137006
:400D80005370A37CB343A374FFF7AFFF04E0FFF7ACFF281CFFF7ACFFA37C002B02D00020FFF7EAFA70BDC0461803002098040020F7B5151C474A071C537C161C464C0128A9
:400DC0005BD10F2118090B40022D25D800216161A161012D13D00D1C884279D1022B0CD13E4B117C1A88914272D23D4B80310C335918C03261619B180BE0002B68D1327CA6
:400E000053B2002B63DB364B191C0C318A186261CC33A36101255BE0002B15D0127C002849D1022B47D12D4B2D48023D1B888018ADB28C309B1A9D4200DD1D1C311CAAB28E
:400E4000123100F067FC36E0244B391C987800F009FA737C002B0AD1337C062B07D1204BB27C9B7C1A4202D0381CFFF785FA023D0123ADB22377E5831DE00025A8421BD1EF
:400E80006169A94218D0A269051C914214D2521A402A01D9402202E093B2002B0CD00F4B6D4607359878D2B22B1C00F0DFFB62692B78D31863610125217FC9B2002907D123
:400EC000301C81225200103000F02DFC00E00025281CFEBD9804002098050020B800002018030020014B18735973704718030020F8B50C4D031C0824281C0F1C161C191C0C
:400F0000221C1C3000F006FC281C391C221C243000F000FC281C311C221C2C3000F0FAFBF8BDC04618030020014B9886D98670471803002070B50C244443174B051C1C19C9
:400F40000E1CFFF7CEFEA279A368082A0DD161880722002902D06288013A92B29B1881221A70FFF7C2FE002015E062889B181E70638801339BB263806388072B01D900239A
:400F80006380A3790133DBB2A371FFF7AEFE281CFFF7AEFE012070BD18030020F8B5554D2B7F002B00D1A4E0534C544E637C1B0900D094E0207CEB8B0638DBB2062800D967
:400FC00093E000F077FB0492089234515F00A07CFFF7C6FE83E0012B00D886E0A37C522B00D082E0E17C002912D001297DD1081CFFF7C2F9B078002100F034F90520FFF761
:40100000C7F972B63E4B00221A60FFF75FFA66E03C4C0C22201C00F086FB2B1C2033A3600720FFF79DFEB07800F032F91AE02B1C28331F780A21002F4CD1A37C502B08D1F6
:40104000FE20FFF7E5FC0F21031E43D10120191C06E00120FFF7DCFC002846D0381C391CFFF716FE022135E02B1C28331B780A21002B2FD1A07CFFF717FE811CC9B20029CF
:401080002DD027E02A1C283212780A21002A21D1032B2AD9A37C462B27D1E37C012B09D1607D237D174900028C311843FFF7ECFC022101E002200521E37C002B08D1607D3C
:4010C000237D104900028C311843FFF7BDFC032100280CD10020021C031CFFF72BFF0021B078297700F0BEF803E00521F2E70721F0E7F8BD9805002098040020B800002012
:40110000980000201803002008B500208021021C031CFFF70FFF08BDF0B5304E304D314C314F324BB0708122281C87B00021520010307B6100F0F7FA00210C22201C00F0F5
:40114000F2FA3B1C2033A36005A8FFF76BFC28480021802200F0E7FA059B2937E38173892382224B3C78EB60002C01D0347321E0082302203373FFF7F5F80120FFF7E6F8E7
:401180000520FFF705F9FFF7D9F8402300280DD00320FFF7E7F8201CFFF7D8F80520FFF7F7F8FFF7CBF8002801D0422333730020FFF7D8F8FE22B078337B00920D4A10351C
:4011C000019281225200039201210222029500F0A5F90320FFF72CFC07B0F0BDB8000020980400201803002098050020A203002024030020B10D0000021C1820F0B55043DE
:40120000164D28188468838A002C02D10C70201C23E0134896003658C22080003758FFB2381C402F00D9402080B20870C118182050432818878989B200208F420DD38B42C4
:4012400006D2D02080003058E05401339BB2F6E718214A43AD18AB820120F0BDC405002058170000084B1A1C60321154002909D164331A5C002A05D01954044B8000C35848
:401280000122DA667047C046C40500205817000030B5144B8200D35813491A681025520052081A6018225043104A10180222027100225A5082820121F820494200011950A7
:4012C0000B481C58AC431C50F42000011950FC2000011950DA661968802212060A431A6030BDC04658170000880F0000C4050020480F0000F0B5754B85B082006946D45856
:401300000F3100230B70724B061CE25801231A4206D0704AA0589843A050E8221201A3506D4B0125E3580193019A0223FF331A4202D0002301931D1C019AD20644D518274B
:401340007743664AD7193B79042B0CD0301CFFF753FF051E0CD00521BA8A3B69012039719847051C04E03F690220191C0022B8471823734359490222CB181A7100229A8281
:4013800081239B00E258802149020A43E250E058534A1040E050C1239B00E0580143E150E1580A40E2504F4A0123A1589943A150F8221201A3504C4B1021E2588A43E2506F
:4013C000F42330221B01E250019A520639D5E8231B01E25801273A43E250182373433F4AD3181979022929D1626ED1060DD5042100201971021C1B69984700281ED0F823D7
:401400001B01E750374BE75003E005221A71002D14D0F42330221B01E250334B1021E25801250A43E2502D4B60339B5D002B01D1E56606E0294B64339D5502E00223E36637
:401440000025F423019A1B01E250002D03D1301CFFF71EFF38E0254B0127E35801933B421FD0182373431D4A0020D3181B690421021C9847002814D11A4B051CE258BA4329
:40148000E250F8231B01E75081239B00E158802252020A43E250E158114A0A40E2500223E366F82301991B01E150114BE758FA0705D56946301C0F31FFF79EFE051CFC239C
:4014C0001B01E750002DC2D005B0F0BD581700008C0E0000880E00004C0F0000C4050020FFFFFEFF880F0000480F00008C0F0000CC0F000008B50320FFF7FCFE08BD08B5E4
:401500000220FFF7F7FE08BD08B50120FFF7F2FE08BD08B50020FFF7EDFE08BDF0B585B001920AAA1278041C02920DAA128880000392424A825800201060814201D1404DF0
:4015400000E0404D1566812680256D02B600D0669551C126B60095513B4EF4279051012676423F01D651394FD051F8273F01D651374FD051FC20000116501068BC460029AC
:401580000DD0029F3E045F003E43C427BF00D651029EFE2E00D0284380256D00284308258026FF35B6009551C026B600955180252D062843106018206043264D019F4155DA
:4015C0002818022101710C99C77081600299039E0B9F0025437081708123C1219B0089008582868107610420D050505055581A48154E05405550D15867460840D0504223A7
:40160000FF3393510123D351032C11D8201C00F051F80205080B0820104907E00920104904E00A200F4901E00F490B20FEF764FF0834E0B2FEF756FF05B0F0BD58170000B0
:401640008828000088280040480F0000880F0000C80F0000C4050020FFFFFEFF1315000009150000FF140000F514000070B5104C800004598220800020584025281AC0B2AE
:401680008125AD00904203D901206051101C01E0042262510A1C551AEDB2854205D216789025AD0066510132F5E7187070BDC0465817000002B4714649084900095C49000A
:4016C0008E4402BC7047C0460E4B70B500251E1C0D4CE41AA410A54204D0AB00F35898470135F8E700F040F8084B00251E1C084CE41AA410A54204D0AB00F358984701356A
:40170000F8E770BD7417000074170000741700007C170000002310B5934203D0CC5CC4540133F9E710BD031C8218934202D019700133FAE770470000001800005B00000090
:4017400000000000000004400001044000020440000304400004044000000540000006400000074000000840F8B5C046F8BC08BC9E4670472901000011050000F8B5C04638
:40178000F8BC08BC9E46704701010000A0170000A80000202000000068050000000000000000000032000200FF030004FF030000800002000000020000042F00080000000D
:4017C00000000000000000000000000000000000000000000000000000000000000000000000000000000000000000000000000000000000000000000000000000000000E9
:4018000000200020012100008545000085450000000000000000000000000000000000000000000000000000000000000000000000000000000000000000000000000000B2
:401840000000000000000000000000000000000000000000000000000000000000000000000000000000000000000000000000000000000000000000000000000000000068
:401880000000000000000000000000000000000000000000000000000000000000000000000000000000000000000000000000000000000000000000000000000000000028
:4018C000000000000000000000000000000000000000000000000000000000000000000089030230626E1911AD11041D000000000000000000000000000000000000000051
:4019000059430014011300083B3400000000010000020C000000000000000000000000000C021C00280200002802000028021800000000000000000000000000000000009D
:4019400002000200000001150102830101040102010101000000000000000000000000002C9101352CD10200000000000000000000000000000000000000000032900124E2
:401980000000000000000000000000000000000000000000000000003200000000000000000000000000000000140005320A0005000000000000000000000000000000009B
:4019C00000010000000000000000000000000000000000000000000000000000000000000000000000000000000000000000000000000000000000000000000000000000E6
:401A000000000000000000000000000000000000000000000000000000000000000000000000000000000000000000000000000000000000000000000000000000000000A6
:401A40000000000000000000000000000000000000000000000000000000000000000000000000000000000000000000000000000000000000000000000000000000000066
:401A80000000000000000000000000000000000000000000000000000000000000000000000000000000000000000000000000000000000000000000000000000000000026
:401AC00000000000000000000000000000000000000000000000000000000000000000000000000000000000000000000000000000000000000000000000000000000000E6
:401B0000BF1D09004563686F4E6F75731C00000041A000FFBF1D005000000000000009000000804000000000BF1D09000000000001010000000200000000000000010000C1
:401B40000000000000000000000000000000000000000000000000000000000000000000000000000000000000000000000000000000000000000000000000000000000065
:401B80000000000000000000000000000000000000000000000000000000000000000000000000000000000000000000000000000000000000000000000000000000000025
:401BC00000000000000000000000000000000000000000000000000000000000000000000000000000000000000000000000000000000000000000000000000000000000E5
:401C000000000000000000000000000000000000000000000000000000000000000000000000000000000000000000000000000000000000000000000000000000000000A4
:401C40000000000000000000000000000000000000000000000000000000000000000000000000000000000000000000000000000000000000000000000000000000000064
:401C80000000000000000000000000000000000000000000000000000000000000000000000000000000000000000000000000000000000000000000000000000000000024
:401CC00000000000000000000000000000000000000000000000000000000000000000000000000000000000000000000000000000000000000000000000000000000000E4
:401D000000000000000000000000000000000000000000000000000000000000000000000000000000000000000000000000000000000000000000000000000000000000A3
:401D40000000000000000000000000000000000000000000000000000000000000000000000000000000000000000000000000000000000000000000000000000000000063
:401D80000000000000000000000000000000000000000000000000000000000000000000000000000000000000000000000000000000000000000000000000000000000023
:401DC00000000000000000000000000000000000000000000000000000000000000000000000000000000000000000000000000000000000000000000000000000000000E3
:401E000000000000000000000000000000000000000000000000000000000000000000000000000000000000000000000000000000000000000000000000000000000000A2
:401E40000000000000000000000000000000000000000000000000000000000000000000000000000000000000000000000000000000000000000000000000000000000062
:401E80000000000000000000000000000000000000000000000000000000000000000000000000000000000000000000000000000000000000000000000000000000000022
:401EC00000000000000000000000000000000000000000000000000000000000000000000000000000000000000000000000000000000000000000000000000000000000E2
:401F000000000000000000000000000000000000000000000000000000000000000000000000000000000000000000000000000000000000000000000000000000000000A1
:401F40000000000000000000000000000000000000000000000000000000000000000000000000000000000000000000000000000000000000000000000000000000000061
:401F80000000000000000000000000000000000000000000000000000000000000000000000000000000000000000000000000000000000000000000000000000000000021
:401FC00000000000000000000000000000000000000000000000000000000000000000000000000000000000000000000000000000000000000000000000000000000000E1
:4020000000000000000000000000000000000000000000000000000000000000000000000000000000000000000000000000000000000000000000000000000000000000A0
:402040000000000000000000000000000000000000000000000000000000000000000000000000000000000000000000000000000000000000000000000000000000000060
:402080000000000000000000000000000000000000000000000000000000000000000000000000000000000000000000000000000000000000000000000000000000000020
:4020C00000000000000000000000000000000000000000000000000000000000000000000000000000000000000000000000000000000000000000000000000000000000E0
:4021000008B5044B83F30888034A044B1A6002F05FFCC046002000206588EDAC3800034010B5064C2378002B07D1054B002B02D0044800E000BF0123237010BD0001002051
:4021400000000000B4EE000008B5084B002B03D00748084900E000BF07480368002B00D108BD064B002BFBD09847F9E700000000B4EE000004010020A80000200000000060
:402180001322F0B5974BA1B01A60974B974A984D9A4201D8012300E00223964C2B70201C04F070F9002809D02B78012B01D1924800E0924804F054F905F01AFF0223904A78
:4021C000412113708F4A137000238F4A536291620139D1620C225A438C4901338A18FF219172202BF6D100208027894E894D60333070894A70702B60884BFE399A63DA6CB0
:402200003F060A43DA64DA6A3A43DA625964844A8449854F11608549854A8850C851854F85480F50371CD86B0F9580B206930591069BDB6B9BB29842FAD0784B0599DB6B8C
:4022400098B205238B508025059B6D029B582B42F9D0069BD96B8BB2984200D92B431B1A7B80002305998B5062B6744A744D116874480792744EA94206D1744A316803786A
:4022800089184A424A419B18079A156000253560012603606E4B1020291C2A1C1E7006F035FC311C321C112006F030FC1220291C2A1C06F02BFC311C13202A1C06F026FC8A
:4022C000311C14202A1C06F021FC311C15202A1C06F01CFC311C16202A1C06F017FC311C321C172006F012FC311C24202A1C06F00DFC311C25202A1C06F008FC311C26204B
:402300002A1C06F003FC321C3220062106F0FEFB311C33202A1C06F0F9FB321C311C362006F0F4FB1120022103F062FF1320022103F05EFF1420032103F05AFF15200321BB
:4023400003F056FF1620032103F052FF1720022103F04EFF3F4A404B404E1A6002232420191C336003F044FF2520022103F040FF2620022103F03CFF394A3A4B36201A6051
:4023800004230221336003F033FF3320032103F02FFF354A354B1A6008233360E31CDA7F231DDB7F07961B021343042B03D9043B9B103B7100E03D71631CDA7FA31CDB7F2A
:4023C0001B0213430433E318BB60E31DDA7F231C0833DB7F1B021343042B49D9043B9B1047E0C04630001040FF7F0000E0180000F200002000190000FF030000FE030000F1
:40240000F4000020F3000020FC0001401C0100209C02002080E100E06588EDAC000003405C0000204D68000018D00000001000E010D000007FBB000014D00000001C0020F0
:40244000EFBEADDE081C0020041C0020F4CFFC3FE0040020F15400004400002000E100E09D540000480000207D5400004C00002000233B73631DDA7FA31DDB7F00261B0297
:4024800013430433E3183B61231C2A331A78231C2B331B7880251B021343BB82231C28331A78231C29331B786D421B021343E418BC6106F0D1FB0020011C07F0F5FF0121A4
:4024C000002007F0F1FF0A2005F07AFD02F00AF9322005F075FD02F0FBF8E449002008F09DFA0221321C01230096301C08F06AFB072003F0E1F8301C08F0BAFA05F022FFFB
:4025000005F018FE0823102101271A1C0B433B432B4330310B4320391AAC0B432A4319392170A270211C03227420637005F01CF90223BD431D433E339D43211C393B03229F
:4025400076202370A570667005F00EF9022304223B431343013A2270211C3A1C6920637005F002F91E23211C022223705120193B637005F0F9F806F0E5FA04F00AF91822C7
:40258000201C311C0CF08DFCB94BBA4DA360BA4B6360BA4B2361AA78D2B2B24217D12B1CAF70083343CC43C343CC43C30721B44B1A63B44AB44B1A60B44AB54B1A60B54ACF
:4025C00093688B433B439360B34AB44B1A6002F079FE012005F0F4FCAB78DBB2012B5ED100222A80297A0E92914200D12B800E9B00210422AA486B600CF053FC9D23012773
:40260000A84E9B00F750381C05F0D4FCC023A64AFF33D35C0699A54ADBB28B50032328227362974CA24B0220E2500E9B193AB364CC239B00F2508023079ADB021360802300
:40264000079A5B031360802333629A4B236005F0B1FC994B0220236005F0ACFC974B662223608C239B00F25002F014F82B1C34331F700E9A924B1A60924B1F600423B36433
:40268000053B23620833A362043BAB706762EB68002B04D0EB68A8780021C0B29847102702253B1C1AAC2B43211C2A1C0D206370257005F0DFFA3B1C211C2B432A1C2D2057
:4026C0006370257005F050F82B1C2A1C3B43211C0D206370257005F047F8002003F00AF90121042002F032FFFA20400005F068FC0021042002F02AFF20230421724E307FBB
:402700001843DB181843737F3843194329437177C9B2307703F0CBFF3220012103F07EFD2023211C23702A1C12334A200027637005F0A0FA0F2319A92A1C5F200F804B707E
:4027400005F098FA03F082FF604B20808007C00F187002F05DFF331C020A1E33B077F277020C000E9A70D870C221594A594B381C04F0FEF8C321584A584B381C04F0F8F874
:40278000FA22C0215200564B381C04F0F1F8381CC421544A544B04F0EBF8002008F0C8F9344CA378012B00D8C1E207F0E6F8D123059A1B02D2584D4B05991A400E924C4A1B
:4027C0008B5007F0DEF86368DB0600D1A4E2042362681A4200D17DE2294D3A4C2B6223681A0600D4B8E1812323602168013B1940F9D12C4B8A00D0580A1C1E4B28320131BD
:4028000098540829F5D11A1C012034321E1C107000223E369A6332701A1C35321070181C602628300278D2B2164000D07FE103200240181C29300078C0B20B2800D96EE11F
:402840001E1C06F033FA0C0073006C01B8006C01F600F2006C014A0130015D0150019978062947D0002A5DD059E1C046B8EE0000393A00001C060020E53600002578000069
:4028800000200C405D50000088000020614500009000002000040440C9500000500000205D06002000000C4000F0FF0F0C0F0000180F00000F0000B80B0000B8030000B8DC
:4028C000A4000C40A0000C409C020020AC000020DC050000E16A000008520000B95A0000BD57000010270000DD57000010001C0080D10000022A15D1998D7D320A4000218B
:402900001AA80180082A00D909E18A4207D0013AC2499200525892681206D20F0280D98D89B2F7E0D98D301C89B2F3E09878062803D0002A00D0F2E001E0002A0DD15A8DE0
:40294000D2B2511E012900D9E9E0012A01D000F091FE1988FC320A4043E0022A00D0DEE05C8DA4B2002C00D0D9E09A8D7F2303201340013BDBB2584336184036F279002A37
:4029800000D1A5E1A64AA54D98019B009A585D59FF23B47103400C341460936113618023000AD06150612B607379002B00D1211CA96000F05FFE9978062903D0002A00D0BA
:4029C000ADE001E0002A0FD15A8DD2B2511E012900D9A4E0012A01D000F04CFE02211A880A431A8000F046FE022A00D097E05A8D002A00D093E09A8D7F2303201340013BA6
:402A0000DBB2584336184036F279002A00D15FE171790922002900D1043280210A437F499B005B589A6000F025FE1B697D48984772E05B8D013B7E2B00D949E101F0C2FDB4
:402A4000002800D044E1784E013E002E00D13FE1502322681340502B1DD140222368734E1343236025681540F7D1012005F0A2FA7F206F4A336A518D83430B4333620523D5
:402A80009370D368002B00D124E1D3689078291CC0B298471EE12B6A9B0700D518E1012005F088FAD0E75A8D92B2012A37D8D2B2403632703278002A02D00620987002E0F4
:402AC000052209209A70DA68002A01D100F0D2FDDB680021984700F0CDFDD98D554889B201291CD116E05A8D92B2002A17D1988D80B2032813D81E184036727000F0BAFD58
:402B0000988D80B203280AD8D98D89B2012906D11818413005F03EFF43B2082B18D1444BDA69002A00D1D3E0DB693E480FE0202E05D15A69002A00D1CAE05B6907E0402ECD
:402B400000D0C5E09A69002A00D1C1E09B699847002800D1BEE0BBE09A0676D5802523683549324E2B4200D0B4E021230B600B689B06F3D42E4A141C34342378032B00D00F
:402B8000A8E0936B002B00D1A4E02C48976B03682478032C00D09BE05C0600D498E009680D4000D094E00F2135321940127802391B06C9B2DB0F9A4201D00A230EE0EBB2C8
:402BC0008B4204D2AB00F3587B550135F7E70124174A353213786340137000230022026093422DD1124B9A6B1C1C52189A639A8F521A92B29A87082902D19A8F002A21D1FC
:402C00001A6B101E02D01B6B064898473F342378002B9DD000285BD157E0C046C0EF0000A0EF000044060020A086010000000C401C0600205C060020A0000C40A4000C406A
:402C40000A2B45D101F00EFD82E75B0642D52268D74B12063ED441221A601B685B06F6D4D44C231C34331B78261C022B32D1A36B002B2FD0A58FADB2002D11D00825A38FC8
:402C8000AB4201D8A58FEDB2291CA06B01F0B8FCA36B5B19A363A38F5D1BADB2A58757E7271C3E373B78002B05D0A06B291C01F0A7FC3D704CE7236B002B02D0236BBE483D
:402CC00098473F363378002B04D001F07BFC3FE701F064FC0124B74B5A68224211D01A19D4778322B54952018A5800205A6290210A22B34B03F03CFEB24B1C629A6AA2432B
:402D00009A621F21AB4A53688B4353608023AE4ADB021360079A1360A64B5B6806F02DFED123059A0E991B02D15006F02AFEA74B0333DB7F002B41D003F09BFC19AB188018
:402D4000C0B20124031C02260C9A2340A2431A4343082340A340F040B2431A4320400423B0409A4302430E9238216A463020521869460025127809181AAF0A702338211CC1
:402D80003A1C1A9504F00FFDBB78334212D0FA20400005F015F90D20291C03F093FCA84208D16B4630220E989B18A0431870C0B202F0A0FD0022854B0333DA77834B04332A
:402DC000DB7F002B3BD003F054FC19AB1880C0B20125031C02260A9C2B40AC431C4343082B40AB40F040B4431C4328400423B04028216A469C4352180443147000221AAFC8
:402E00001A922D20291C3A1C04F00EFCBB78334211D0FA20400005F0D3F82D20291C03F051FC002807D16B462822B4439B18E0B21C7002F05FFD0022644B0433DA77634B73
:402E40000533DB7F002B42D003F013FC19AB1880C0B20124031C0226089A2340A24313434208F0402240A24004252040B040B3431343AB4303430E9338226B4620219B18B0
:402E80006A461B785218137000231AAF1A930D202B1C211C3A1C04F0C7FBBB78334212D0FA20400005F08CF80D20211C03F00AFC002808D16B4620220E989B18A84318700C
:402EC000C0B202F017FD0022404B0533DA77404E7378002B00D1EBE000251E20757005F06FF803F0B3FB19AF38808007C00FC3B20E933070354CAB4216D0A31DA577E57787
:402F0000DD77281C334BD4210A22073403F030FDE37FAB4201D103F003FCC1212E4A2F4B002003F025FDC3E0C82010AD800005F047F8281C03F075FB294B07CD07C307CD5A
:402F400007C32A681A6005F0B5FD00284AD1AF20800005F035F803F079FB38808007C00FC5B23070002D48D1A31DD8770123E077281CA37702F0BEFC0734164B281CD421E5
:402F80000A2203F0F5FCE37F002B01D103F0E2FB1E231AA90B7002220B3369204B7004F0E3FBFA20800003F012FC05F0E3FD1DE3A0000C401C0600204406002000000C4087
:402FC000C551000000200C4080E200E09C020020AC0000200158000088130000895A0000900600200123A21DD377A377E3770E98D4210A22954B03F0BBFC954A1AAC62708D
:4030000041223023A2703B3AE2705120211C013A00252370237104F0A7FBA8422DD0221C012351201D21257004F0FEFA032322781340032B21D10121042002F087FA96201B
:40304000400004F0BDFF0420291C02F07FFA814B0733DB7FAB4201D103F07CFB1E23211C2370022229336920637004F07DFBFA20C00003F0ACFB05F07DFD764B1A1C083296
:40308000D27F002A08D11A1C28321278002A03D129331B78002B04D0012002F00DFB6E4804E0032002F008FBFA20C00003F08FFB684C261C2A363578002D14D0231C012519
:4030C00002222B331978A94391431970231C2C33187803F0E1FA231C2D331D7000232E342370337028E0271C2F373E78002E13D0231C012602222B331978314391431970CF
:40310000231C2C33187803F0C7FA231C2E342D331D7026703D700FE0251C30352B78002B0AD0221C03232B3211782C3419432078117003F0B1FA2E70464F3B1C31331B7861
:40314000002B00D1F3E000243D1C444B1AAE32351C70211C321C01235F2034702C7004F022FB211C287001230D20321C04F05CFA3A4B29781870A1421CD13A1DD38F102015
:403180000133D38780220F9B52001A60344B1870344803685B005B080360334B1960334B1A6005F0CFF83B1C4E331B78A34201D104F01EFF274C231C33331978002915D1C4
:4031C000A21DD38F10200133D38780220F9BD2001A60274B1870274803685B005B080360254B1960214B1A6004F0A4FF251C50350D20291C03F006FA002806D1231C32332F
:403200001B78002B01D1FF232B801C4D2B782E1C002B35D1231C50331B88132B02D8A97804200CE01A1C143A3B2A02D8A978052005E0642B01D102202CE00220A97802F04A
:4032400085F90122AB785340AB7026E001580000904106309C020020A4060000CF0200207C06002000000540880F054080E200E0F804002000000740880F0740AC0000200B
:40328000231C50331B880420132B03D9143B3B2BD1D80520012102F059F9E878502105F095FDC9B2002904D1311D0B20032204F0E1FCE878142105F089FDC9B200292BD192
:4032C0001AAD1620291C03F09DF9002828D0211C1420523103F096F9002821D0211C1520543103F08FF900281AD02A8813B2002B04DBA021C9010A4200D1BFE1E51DE97F9D
:40330000002900D0BAE103F00BFA0123221CEB770832D38F0133D387CD4AD3780133D370231C002231331A70012356342370C94C231C57331B78002B4CD003F09AF91AABA7
:403340001880C0B20126031C029D3340B54302221D4343083340B340D04095431D430423304090409D436B46054300210D201D7203F0A8F9002807D1354205D06B46B543D0
:40338000E8B21D7202F0B6FA2D20012103F09AF900280AD10223029A134206D0101C98436B461872C0B202F0A5FA0D20012103F089F900280AD10423029A134206D0101C38
:4033C00098436B461872C0B202F094FA231C002257331A70231C58331B78002B3DD003F09FFB071C02F080FD061C02F04DFD051C2E2F0ADC301C06F0E7F9061E2E2E04DC58
:40340000281C06F0E1F92E280ADDFA20800003F0DEF905F0AFFB231C012259331A7012E0251C59352B78002B0DD02E2F0BD02E2E09D02E2807D0FA20C00003F0C8F905F037
:4034400099FB00232B70231C0020FA2258331870C0215200804B03F08BFA5A342378002B3ED000231AAC2370692001330221221C04F0DAF823785B0732D001236920022165
:40348000221C04F0D1F8FF2300280AD02278FA3B910706D40133D10703D4F933520700D5FC3B033BDBB2032B1AD801229A40131C0D22134214D005F045FB03F06AF91E23ED
:4034C000211C0222237069200B33637004F04CF905F050FBFA20C00003F079F903F03AF95C4C231C56331B78002B7FD0002007F041FB051C03F0BDF819AB18802077000ACA
:40350000607703F0A3F8221C1AAB18802B34C3B2000A207000202C3213709B07DB0F4C49DAB20B7082420DD14C4E10AC201C03F078F8331C07CC07C307CC07C322681A60D0
:4035400005F0B8FA434E0022331C5B331F78341C111C012F01D91A7001312B1C76331B78002B0AD02B1C66331B78012B05D1221C5B321278002A00D1191C2B1C76331B7835
:40358000002B0CD02B1C67331B78002B07D1002805D0231C5B331B78002B02D00BE0002909D0231C5B331878002804D1D4210A222B4B03F0DDF9737F9B0714D567352B78D0
:4035C000002B04D0231C4E331B78002B0BD1231C5B331B78002B06D1717F02339943307F717703F064F80023563423700023194CE36506F0C2F91B4B061C9B78251CDBB2FF
:40360000072B03D0012B01D9002416E007F068FA0028F9D06378002B56D106F0AEF90421114B124A1B889BB21360114A13680B43136030BF06F0A5F90124301C06F0A1F9F6
:40364000002C01D1FFF7A9F807F06CFAFFF7A5F8AC0000209C020020BD57000090060020015800001C06002052F1FF0F0400034010ED00E000F0A6FFFFF74EFA184DEF1D1D
:40368000F97F002900D147E6002B00DA44E6A026F601164000D03FE6AB7F002B00D13BE62B1C52331B88002B00D135E62B1C54331B88002B00D12FE603F04CF84835FE77BC
:4036C0002B8801332B8027E6069B60351B6C2A889BB29342A1D0322004F06CFC9DE7C0469C02002070470000F7B5031C58205843634C00252018061C403675710F89614DCE
:4037000001923D4080273F02BD4200D0AEE08F68051C87620120307180263E30384076423043283528705848C05C002800D08DE04878012800D089E0087AC006C00E013833
:40374000052800D982E00BF081FA03285081817B4D89FF214D480902C05C8D4276D1002874D058265E43A1194031087148499D00695800258C4680006246414FA919525971
:40378000C91904358A628542F6D1582159437918C88D800A8002C8851FE04D89FF213D480902C05C8D4251D100284FD058265E43A1194031087138499D006A5800259446A5
:4037C000800062462E4FA9195259C91904358A628542F6D15821594379183F2028310D78284040252843087030E04E892B4998002B4D415858002D5C042D27D9CF880878A2
:40380000B7420BD158255D4304386619801040363071C0B201308000002605E02D1AEDB20918002DEAD111E00436864204D077198A59E7197A62F7E7582159436118CCE7E2
:403840005821012059436118403148715821594361180D1C48318879032160262835014048016978B1430143697001E002217171582159432831181C6118019B9847F7BD8B
:4038800060040020C080FFFFD80B0020A0020020A4020020A8020020AC020020B4020020B00200207047704770470000E223064A5B00002902D1D158022001E00420D15831
:4038C0008143D1507047C04600000A4070B5C37882781B021343082B67D004D8022B14D0052B42D088E0112B70D0122B00D083E0434B197803794079C9B20002184301F005
:4039000025FE43425841C00078E0C279837912021A430823802A70D102794079394998401043021C303A92B28A4266D8364C043B2370364B364D1E783649374A374B012E1A
:4039400005D1374E2E80374D0D80374905E030262E808525AD000D80344911802F221A8004F0C2FF0023237041E0C279837912021A430823342A40D1234D043B2C4C2B7057
:40398000234B294A1C80234B00211C80224B29481A802F22214B1A801D320BF082FA201C04F0A2FF00232B7021E0437902791B021343C279817912020A43012A01D80C23C7
:4039C0001BE0D8B20E4904F055F90DE0437902791B021343C279817912020A43012AEED9D8B2074903F0C0FE002802D1E7E7002804D100F0E7FD01E00823181C40B270BD06
:403A00001C050020CF03000019050020F20000201A050020EE000020F0000020B400002015020000F9030000FE030000FF030000FB0300005005002010B5041C8378C07851
:403A400000021843030A022B07D0032B0DD00820012B43D12248234902E022492048123112220BF015FA12232CE0C0B20023032828D80BF0EBF8060E12021B491B4A0B1D61
:403A800010E018491648243104220BF001FA042318E014491248283102E0124910485C3134220CE0501C1278002A05D01A7000225A700233021CF5E70948023134320BF0D4
:403AC000E7F93423E279A17912020A43191C934200D9111C89B2024804F05CFF40B210BD1C05002010EF0000B400002080FD010038B5041C0D1C07F03DF8C37903209B0622
:403B00009B0F03D00930022B00D0083858216143044B5A1805320831D077C918201CA84738BDC0466004002070B50D1C041C07F021F8031C67331978012901D1837A00E0D1
:403B4000037B021C6A3216780422002E11D10678022E0ED15BB2002B01DA002909D10C21C37903220B409B0803D00A1C022B00D0083A58216143044B581805300831C2776F
:403B8000C918201CA84770BD6004002070B5041C0D1C06F0EFFF582363430D49CB1850331E780A1C0123002E07D1C1790233194003D00933022900D0083B58216143501899
:403BC00005300831C3775118201CA84770BDC04660040020F8B50F1C151C1E1C041C06F0C9FF012342798079291C1A4018404006120602430720194089060A430740101C70
:403C000000223F073843954200D1321C13400E4A0E4DDB061040A400184363592C199A050B4B920D18409602636830439B05800A9B0D80021843040104D49A4202DD800AE1
:403C400080021043F8BDC046FFFFFFF700030020FF03F0FFF0B591B0009001910F9206F089FF019B05905B780D93019B1B899B059B0D0A93031C3033FF331B78DB06DB0FAA
:403C80000E930023069309930493059B049A7F331B78934200D885E1002307936B460D9A1B7F0B93934200D378E1009806F062FF049E4A36B6008619F779BB090293049BC2
:403CC00080335B001D5A079BAD050233AF0D9D00019B5A19D3789B09012B73D0022B00D1CDE0002B00D056E1019B1421EB581C03A40D201C1330039304F0E2FF231A039372
:403D0000029B0019012B2BD0002B02D0022B07D041E173681B039B0D9C4200D03BE10CE07368039A1B039B0D9A4200D233E1F3889B049B0D984200D92DE1019AB388AA5ACF
:403D40009B0592059B0D920D391E994200D2191C8A4200D21FE1009ABF4992005350FCE07368039A1B039B0D9A4200D213E1F3889B049B0D984200D90DE1FA24B08864003E
:403D80008005800D60430138111C801804F098FF7C43039B061C581E191C001904F090FF019B071CEB5A021C9B059B0DB04200D2321C934200D2EEE0009BA74A9B009E50F9
:403DC000039CCAE0019B5488EB58029AA40403931B03A40D9B0D012A32D0022A00D0DAE072681203920D934200D2D4E0F3889B049B0D9C4200D9CEE0FA21B088490080055A
:403E0000800D6043F430FF3004F05AFF061C381CFA216043F430FF30490004F051FF019B071CEB5A021C9B059B0DB04200D2321C934200D2AFE0009B874A9B009E50E8E02F
:403E400072681203920D934200D2A4E0F3889B049B0D9C4200D99EE0019AB388AA5A9B0592059B0D920D391E994200D2191C8A4200D290E0009A784992005350C9E05388DF
:403E80009B049B0D0893019BEB581803830D0393029B012B2CD0022B00D07CE07368039A1B039B0D9A4276D3F388089A9B049B0D9A4270D8019BB488EB5AA4059B05A40DE0
:403EC0009B0D3A1EA24200D2221C934263D3FA210398009B6043604D9E00F430AB19FF304900029304F0ECFE029B7451986099E07368039A1B039B0D9A424CD3F388089A88
:403F00009B049B0D9A4246D8FA20B38840009B059B0D0293039B03995C1E029B5843201804F0CEFEFA235B007B43061C0399181904F0C6FE019B071CEB5A021C9B059B0DA3
:403F4000B04200D2321C934225D3009A424B9200029899188860D65064E0009A3E4B9200D0589D18EC604443201CFA21F430FF30490004F0A5FE6F60A860009B364A9B0090
:403F8000D3189C68099A944205D30E9A002A51D0DB68642B4ED1079B01337EE6049B0133DBB271E6069B002B25D1FA21059B2A4EFC331A6B1C8E1003009AA4059500800D21
:403FC0007719A40DF8606043F430AC51FF30490004F076FE0A9BB860A34200D2AB510121059B7519FE335B8800986B600A1C0023FFF7F0FD0C905821009A184B51430C98D7
:404000005A1808319060C91800980F9B984711B0F0BD009B104A990053188A58DC605F609A60AAE7009B0C4A9B00D318089A5F60DA60A2E7049B059A80330B995B009B5A94
:404040000131DB0BC9B200980022FFF7C3FD01230C90099406939EE7000300206004002008B506F087FDE22370300178044A5B00D058002901D1800700E04007C00F08BDB8
:4040800000000A4010B5041C05F077FC002C0FD1094B012248331988B42903D0F02903D1064B04E0064B02E064211980054B1A7005F067FC10BDC04660040020CC02002030
:4040C000CB020020C602002008B558234343034AD31848331980FFF7D5FF08BD6004002008B5002801D100F0F3FA08BD08B5002801D100F0F7FA08BD08B558234343054A0B
:40410000D318002250339A70904201D104F074FD08BDC0466004002038B5041C151C06F071FD58236343074A0321D3180533002800D00421D9775821614308315118201CCA
:40414000A84738BD60040020E22310B50A4A041C5B00002902D1D158022001E00420D1580143D150201C012106F07CFF201C022106F078FF10BDC04600000A40F7B5041CE0
:404180000E1C05F0FAFB1E2101902322201C01F079FF58236343194F0093FD18102348352B80201CFFF76EFF10236B80002E1AD0201C06F0DFFC91300378002B13D0201C3D
:4041C000FFF794FF9622009B0D4DDE51201C2B1C2121920002F0CCFB201C222103222B1C02F0C6FB05E0201CFFF786FF201CFFF777FF019805F0C5FBF7BDC04660040020DC
:40420000DD43000070B5041C0D1C05F0B6FB061C002C01D104F0BAFC201CFFF761FF201C2521262201F02EFF002D1BD0201C06F0A1FC91300378002B14D0201CFFF756FF4D
:4042400058236343094A2521D3185D60084DFA222B1C201C02F08CFB201C262101222B1C02F086FB301C05F08CFB70BD6004002001450000F8B50E1C041C06F07BFC051CCB
:4042800005F07BFB9135071C1E21201C232201F0F9FE2B78002B35D05823012263431B4DEB1850339A70002C06D104F06FFC0A2003F080FE04F0D0FC201CFFF711FF002EC6
:4042C00020D058236343EB181A1C012150325171483359881B88994204D90023201C5371FFF704FF58236343EE50094D1E21FA222B1C201C02F03CFB201C1F2101222B1C99
:4043000002F036FB381C05F03CFBF8BD60040020DD430000F7B50C1C0021161C051C00F0E1FB32204443301C642160430AF098FC9A235B006B43264A2018D318FE33DC8AA2
:40434000C343DB1718400B210AF08AFCA4B280B2211C000204F0B4FC041E032C03D9FE2802D9FE2400E0042405F007FB8023D225184E9B0001906D001C43775974510124D5
:404380000A2003F017FE73590A20DB0B77519C4303F010FE8022104B52001A62196B114211D0002F0FDB9A6971599201920F090407D5022A07D180219A6A49000A439A6286
:4043C00001E0012AF7D0019805F0DBFA201CFEBD1403002000000A40FC000A401E3970B5052900D986E0041C081C0AF02FFC0310414D587A2022201C1F2101F043FE582399
:4044000063433D4AD318102248335A8040E058226243394B394D9A18111C503149791E1C002908D158236343F3181A1C50325279002A11D018E0483211881422201C52426B
:40444000FFF768FF0028EDD0201C1E2101F064FE201C20217D2240E048331988201C1422FFF758FF0028EFD0201C1F21012234E0201CFFF735FE582363431F49CA18483231
:4044800010885B58508033E0201C222101F044FE201CFFF731FE201CFFF722FE2AE0201C64210A22FFF736FF002802D1201CFFF723FE1422201C10215242FFF72BFF0F4D46
:4044C000002807D1201C212101F026FE201C2321022202E0201C222103222B1C02F048FA08E0201CFFF7FCFD58236343024A9B58201C984770BDC04660040020DD4300001F
:4045000038B5041C0D1E252D02D0262907D021E0262101F001FE201CFFF7E2FD1AE064210022FFF7F7FE00280ED1201C252101F0F3FD201CFFF7D4FD58236343064A201C0A
:40454000D3185B68984705E0201C291C0122034B02F00EFA38BDC0466004002001450000054A064BDB6B51680B4353608022044B52031A607047C0461C06002000200C404D
:4045800080E100E008B5034A034B1A6003F030FDFEE7C0460C3003C0041C0020802307490E200A68134006D1054A0838343210700322181C0A6040B27047C046A0000C400E
:4045C0001C06002080230C490E200A68134010D10A4A101C28300078343240B2002803DA05201070022202E0042010700622181C0A6040B27047C046A0000C401C0600200E
:40460000144BF0B51A1C343214781D1C0E22022C1ED18023104C2668334019D1DAB28A4205D2C75C0D4A9E00B7500133F6E72B1C35331A780A48002A04D080221143016097
:40464000002201E0012201601A700F230022236050B2F0BD1C060020A0000C4000000C40A4000C40084B0E2034331B78032B09D1064A7D3311680B4004D10549181C0B6030
:404680000B21116040B270471C060020A0000C40A4000C40002210B50C210B4B9400E058203301600D3981600021E358416099600323534305480132C31840339971D971B1
:4046C000082AE9D110BDC046A0EF00001C060020F6220120024952008B5883438B50704700000A40F6220120024952008B5803438B50704700000A40F8B5344C344FA36B36
:40470000002B5FD08022A36B5200061C0125134214D0216B2F4B0B402363D22322625B00FB582D4ADB0B9D439A235B004343D318FC331B6A002B01D0291C98478021A26B56
:404740008900224B0A421BD0186B244A02401A631962D6231E4A5B00D25880231B0213405A4253415B421D409A235B0073431A4AD318FC335B6A002B02D0301C291C984740
:404780001022A16B114B114203D0196B914319631A622022A16B0D4B114203D0196B914319631A624022A16B084B114203D0196B914319631A628023A26BDB001A4201D0DE
:4047C000024A136284239B00FB58F8BDFC000A4000000A40FFFEFFFF14030020FFFDFFFFD823064A5B000420002902D1D158814301E0D1580143D1507047C04600000A40C9
:40480000D8230A4A5B00D058002906D1084901408020D150D158400305E0064901408020D150D15880030143D150704700000A40FFFFBFFFFFFF7FFFD822074852008358F1
:40484000002902D1A021C90301E0A02109040B4302490B408350704700000A40FFFFFFBFD823054A5B00D058002901D1034900E003490140D150704700000A40FFFFFFFEEE
:40488000FFFFFFFDF0B5FF250C263F271A4B2D025C59B4435C51194D194E5C59BC435C519C59BC439C511C1C331C002801D1154800E01548175C60590F4E38436051E05899
:4048C0003843E050101E022806D1FF221202B35806300343B3500538D8256D0066590B4B820633401A438223002900D08423DB051A436251F0BDC04600000A4004FF0000D6
:4049000008FF000079F0FF0F85F0FF0FFFFFFFF310B506F09FF9031C67331B78002B0ED1FF230C24064A1B02D1586830A143D1500178032903D10820D1580143D15010BD5C
:4049400000000A4000207047D8220A20034952008B5803438B5000207047C04600000A40D8220E4B520098580D490140E020995099580003014399501A1CFC329069094944
:40498000014091619069084901409161E021142049005A5882435A500020704700000A40FFFFF1CFFFFFF3FFFFFF7FFB054B01201A68054B1A4203D1044BDB695B0A18409E
:4049C0007047C046A4000A4007001000FC000A4070B50F490F4B01394A1C15D000221E685C689D68A018AA4203D0B058A0500432F8E7021CDC68151AA54202D0002520C20D
:404A0000F9E710330139E7E70AF01CFAFDF7B8FB0100000000F800000023F0B587B002920593994208D1C02380269B04284C294D18270093760007E0C02380261B275B0550
:404A4000254C264D0093B60004F097FF236803900193029B5A04C023DB021340802292001343012223602B6813432B602B68DB0706D5059BC72B03D8059B01330593F5E716
:404A8000022003F097FA019B2D680A20236003F091FA134A2D021662136B2D0E334211D0019B002B0EDB936900990B402168FB40090405D4012B05D1936A1E43966201E06E
:404AC000022BF9D0039804F05CFF281C07B0F0BDA4010A40A0010A40AC010A40A8010A40FC000A4070B502220C1C061CFFF794FF0B4D011E0BD09620C00204F0E1F89A23B4
:404B000073431B1988335B0080B2EB1898809A235E433419883464002C19A08880B270BD14030020F8B50F1C161C06F093F8051C67352B780224012B00D0341C8822002330
:404B400052009C46012F00D19446D8232E495B00CF5817400022674508D0CF582B4A3A406746CA50CA5817430122CF502F78284B012F0BD140331E1C9530007880001B18D7
:404B80005B785F02835D5B013B4306E040339E19737B5802337B5B010343D82040000F58EE210901184E3940994207D03158194A0A40325032581343335001E0002A02D01E
:404BC0000A2003F0F7F9144B1A68C023DB0213408022D202934205D12C78013C624262410224A41A2A78012A04D15A1E93415B421C4006E0002A04D1C022D202934200D15F
:404C00000324201CF8BDC04600000A40EFFEFFFFA0EF00001FF1FFFFA4000A40F0B585B0061C06F017F8031C67331F78041C0B3303AD012F25D11B78012B15D12B4B1A6874
:404C400006231A40031C002A03D09A331B882B8006E06F331F78301C391CFFF763FFE85570342378022228E00021301C0A1CFFF759FF391C28700022301CFFF753FF68705E
:404C800030E01A780027D2B2012A1BD1174B1968062319400191B94203D0983423882B8020E0031C6F331F78301C391CFFF73AFF6A46E855703423781279EA5412E0012F6A
:404CC00010D00127FCB2301C211C0022FFF72AFFE8550028F3D0301C211C0122FFF722FFE855ECE7288805B0F0BDC046A4000A40F8B5C14C636B002B00D16CE1636B071C71
:404D00009B050FD59A235B0043430020BB49CA182932FF325B5810710821381C984788239B00E3618023626B1A4209D0B24AD361B4337B43B14AD31801222933FF331A7109
:404D4000636BAD4ADB0067D5D5692B0721D530232B40102B1DD12533FF337B43A749C9182931FF310E79012E13D100260E71A44E3168081C8021090308433060D66AA149C7
:404D8000381C3140D162A049D1619C4A03219B589847EB073ED520231D403BD19A204000784396490B181A1C2932FF321571E66A964A3240E26280229201E261944A12689E
:404DC0009206520F013A1A71924AD66D924A32409A605A7A5206520FD6B25A711A7AB446D6069206F60ED20F9E71DA7165450AD22B1C884A18339B00D258AB001B18CB18FC
:404E0000DA600135F2E79A235B007B43381CCB5806219847814BE3618025636B2D012B4209D09A235B007B43744A381C9B5807219847714BDD618025636BAD022B4209D09B
:404E40009A235B007B436D4A381C9B5807219847694BDD618021626B8901674B0A420CD0D86A6A4A0240DA62D9619A235B007B43624A381C9B58012198478025636B6D0338
:404E80005D4E2B420AD0381C002101F07DFF002803D1F26A624B1340F362E561636B564D5B0440D59A22002052007A4353498B182933FF331871D87840B2002808DAE86A67
:404EC000504B0340EB625358381C0221984727E0DB78002B19D08023DB03EB61052003F069F880224F4E12033368134205D08022EB6AD2031343EB6207E0052003F05AF8F9
:404F0000802233681203134333609A235B007B433A4AD3182933FF33DA78013AD2B2DA708023DB01E3618026636BF603324D33420DD0052003F03EF880213A4A090313680D
:404F40000B431360EA6A384B1340EB62EE61C023626B5B02284D1A420FD09A235B007B43264A381C9B5800219847D02380225B02EB61EB6A92011343EB62636B1E4DDB057E
:404F800012D59A2300205B007B431C49CA182932FF3210715B58381C05219847EA6A234B1340EB62224BEB61636B134A5B0312D59A2300255B007B431048C1182931FF3173
:404FC0000D71D56A19492940D1621949D1611B580421381C9847E26D074B002A0BD08022D96D114200D01A658023E26D5B001A4201D0014A1365F8BDFC000A4014030020F8
:40500000D0000A40773FFEFF88C00100FFDFFFFFA4000A4000000A40EF7FFFFF7F002010FFFFEFFFF4000A40FFFFBFFFFFFEFBFF00010400002008B5064B90210133D877E7
:4050400001F06AF80121044B19629A6A0A439A6208BDC0461C06002000200C4038B5154C154DEB6A6268134302226360636813421AD08021114B1962114B7F3919600423E9
:40508000A3702388934323806318DB7F002B01D0FFF7D0FFE368002B04D0E368A0780021C0B2984702232B628022064BD2021A6038BDC0461C06002000200C4000000C401C
:4050C000A0000C4080E100E0F8B501254020002101F08EF8314B324C1D61324B1D60324B1D60A378072B52D1E378304EDBB2A3709D239B00F550281C02F05CFF04222C4F91
:4051000002203B6893433B6002F054FF08223B68002093433B60CC2307329B00F250013B5732FF3BF250231C34331D70214B22491860224BD7321D600B1C34331B78FF3289
:40514000DBB2B3500C23FF271D4D860072592035136083019BB21F401B0A97611761D361536172590D1C43003435EB185D780130EDB21560402555609B78DBB29360082880
:40518000E0D1E368002B02D0E368002198470134E37F002B01D1FFF74DFFF8BD000404401C06002080E200E080E100E000000C4000200C40A4000C4014040020A0000C4047
:4051C000A0EF0000F8B5374CA378052B05D0A378032B02D0A378062B53D10221324EB36C0B424ED0631CDB7F002B4AD00422756A154003D0736A9343736242E083235B0121
:40520000626AF3589A423CD10123284F40203B6100F0EEFF1022264B1A607B680F3A13422DD0A3780C21DBB2E3700723214AA37013680B4313608F231F4A9B00111CF35825
:405240003431DBB20B70161C1C4BA9002033C858343601686B00C9B2F318597081680135C9B29970082DEED10021631CD977E3688B4206D0E368A078C0B2984701E0FFF77F
:40528000D9FE631CDB7F002B0AD08323064A5B01D3580020636290210A22094B01F068FBF8BDC0461C06002000000C400004044000E100E000200C4014040020A0EF0000CD
:4052C000C5510000F7B5314D0E20AB78012B5BD980222F4BD2021A60802252031A60012200242C4B52429C621A622B4A2B4F14602B4A14602A1C343214702A1C3E32AC63D5
:405300001470284A9C62BC641A600223AB70FFF7C1F99D2201217C6292003C62BB58081C8B43BB5002F046FE6B1C201C9021DC7700F0F2FE2023FE21BB641B481B4B1C4F5E
:40534000FF31DA59465C0196FF26B243019E3243DA510437DA599446072266463240DA51144FDA59415C6020490182430A43DA510123AB70EB68181EA04205D0EB68A87852
:40538000211CC0B29847201C40B2FEBD1C06002080E100E000200C40A4000C4000000C40A0000C401000000400F0FF0F000003400C0F0000180F000038B5154B9B78062B37
:4053C00024D0144B1C78002C02D000221A701DE004F0D3FA051C201C05F066FB211C201C05F062F80121201C05F05EF8642002F0E7FDFFF777F9322002F0E2FDFFF768F900
:40540000201C05F035FB281C04F0BBFA38BDC0461C0600205C040020002000B506498DB00B7801AA01330B700A21044B107005F0C7FD0DB000BDC046F7020020595E000020
:4054400008B50D4A002053890133538105F092FB031C76331978C9B200290CD1022366300288FF339A4206D1081CFEF703FFFA20400002F0A5FD08BDD002002008B53320BE
:4054800000F0A4FE362000F0A1FE4022024B1A61383A1A6108BDC0460003044008B5242000F094FE002802D001220D4B1A70252000F08CFE002802D001220A4B1A702620C9
:4054C00000F084FE002802D00122074B1A701022064B1A6192181A6120321A6108BDC046BE020020BF020020C00200200002044008B5112000F06AFE002802D00122104BDF
:405500001A70162000F062FE142000F05FFE152000F05CFE172000F059FE002802D00122084B1A708022084B1A61783A1A6138321A61303A1A6110321A611E3A1A6108BD27
:40554000AD000020F602002000010440013838B52D4A062851D80123202409F077FB040D17242C353F0020200B4011785B0181430B43E7210B403FE001200B1C1578034042
:4055800019012B1C0F30A343834308E020240B4011785801A143014310201B0181430B4308218B4328E020200B4011785C0181432143180119E01378E720A3431C1C012342
:4055C0000B40DB00211C07E020240B4011785801A1430143E720DB0001400CE0157801200B1C291C03401801A1431024A14301430820DB0081430B431370044B1078197803
:4056000001F04AF8012038BDC8020020C70200200122F0B5234B8BB01B78234D534008AE2B700B201021321C022302F0BCF809AC002801D11D480FE00B201821221C0223B7
:4056400002F0B1F80028F5D0642330882188584309F006FB04F0D8F803F0FCFB144B154E1B88E8706846AB7000F0DBFF331C684646C846C346C846C302681A6003F01AFA11
:40568000291C68700422201C09F002FC60782378A27800021843E37812041B06104318430BB0F0BDAC000020BA02002000007F43EC020020900600209621F0B587B003AA74
:4056C000138849009B0A9B028C460B43C8211380039B344F30263B4049020B433F210190180CC0B2B0430840039390700120102520241B0E03430018834302300343043072
:40570000834360462B4323430B40D37093889B0A9B020343B4209380536880023B400343180CC0B2B04308405360907101201B0E0343001883430230034304308343604608
:405740002B4323430B40D37113899B0A9B0203431381936800201F40F0239B021F433B0CDBB2B3430B409760937201233F0E1F43DB189F4302331F4304339F433D432C432A
:405780000C40D4723C3905F0FDF90199002005F00FFA0020011C021C031C05F011FC07B0F0BDC046FF03F0FF08B50320FFF784FF08BD08B50120FFF77FFF08BDFA2208B55A
:4057C0005200044B0020C02101F0D2F80122024B1A7008BDBD570000CD02002008B5054A054B0020C42101F0C3F80122034B1A7008BDC04610270000DD570000F302002037
:4058000030B5344A8DB0538900200133538105F0B1F9051C304B041C1B787635002B14D12E4A1278002A10D1021C67321278012A0BD1FFF7F1FD00282DD0FA22D42192001A
:40584000274B002001F094F825E02A78002A18D0221C67321278002A13D1002B11D11F4A1278002A0DD0FFF7D7FD0028E5D102211C4A137819431C4B1170187800F017FF54
:4058800009E02A78002A06D0221C67321278012A01D1002BCDD12B78002B18D066342178012914D1114B1C78002C10D1197001AA201C08310E4B147005F082FB002806D04B
:4058C000FA22201CD4219200054B01F051F80DB030BDC046D0020020AC000020C102002001580000B9020020B8020020F7020020595A0000F0B585B0051C00F0BAFE3A4BEC
:405900003A4F1A7838703C1C0193394E002A08D103F0D0F8002804D1F8233878184038705CE00123281C334918402278002803D01A4322700B7002E09A4322700870022247
:40594000281C2D4910402378002804D01A43012322700B7002E09343237008700422274915402378002D04D01A43012322700B7002E0934323700D7000210D2000F0A2FE7A
:405980000121051C2D2000F09DFE0121071C0D2000F098FE019B1B78002B1ED13D432843C0B200280BD0164B1878002805D1FA22C5219200134B00F0DBFF13480BE0134BDC
:4059C0001878002805D1FA22C5219200104B00F0CFFFFA20C00000F0FAFE2078317800F066FE012005B0F0BDAC000020B8020020B9020020C3020020C4020020C50200205F
:405A0000C9020020B3570000A4060000CA020020A957000070B520260B4D0C4C28782178B043287000F043FE142002F0C9FA287821783043287000F03AFED721044A054BE0
:405A4000002000F095FF70BDB8020020B902002010270000B953000008B51379DB06DB0E032B02D10122064B1A70042906D0FA220020D4219200034B00F07AFF08BDC04603
:405A80005C0400200158000070B5041C05F072F876300378002B0CD0064E7578002D08D1291C201C05F0DAFA201CC121757000F033FB70BD5C04002010B50024074B201C6B
:405AC000C0211C7000F028FB0122054B201C1A70C321044A044B00F04BFF10BDCD020020F402002008520000B95A000073B50E1C051C05F03FF8041C701E192800D98BE120
:405B000003F0D4F87F002A007F00F800F8008A018A018A0171005A018A01280117018A0148018A0171008A018A01710004018A018A018A0171001A006F342378B74A591E17
:405B40008B419370582300205D43551954356870D521B34AB34B2CE1231C6F33197804204B1E9941B04AAD4E1378C9B28343B17089001943AD4B1170187800F08DFD00F03B
:405B800065FD01AB18808007C00FA94BC2B21870A84B002A07D173342278012A03D102211A780A4302E002211A788A431A70A24A1978107800F07BFD582300245D439F4A3F
:405BC0007519138854350133201CD5216C70138000F0A2FAFFF71EFF0122994B201C1A70D4210932E4E0192E24D103F005F80222904B1978914319708F4B187800F057FDF7
:405C00003EE0012E16D1251CB4352B68082B06D1142002F0D5F9FFF755FB02F0E9F92B68042B2DD1142002F0CBF9FFF74BFB02F0DFF925E0032E23D10020FFF75BFE7C4B4B
:405C400002211A787B4B002A02D01A788A4301E01A780A43202100251A70774A107888431978107000F023FD754BD5211D70281C6B4A6C4B00F07CFE281CD72100F04CFA9A
:405C80001422002064215242FEF744FB002824D072342378002B20D1664B1C7802231C401BD101210720FFF751FC201C04F0FCFE211C201C04F0F8FB0121201C04F0F4FBBF
:405CC000642002F07DF9FEF70DFD322002F078F9FEF7FEFC201C04F0CBFE0020594B0A221870D421584B00F043FE544A53880133538091E058235D43484B01225D192B1C5C
:405D00004C335A71002354356B7085E0582300245D43424B201C5D194C35D521AC7100F0FBF9201CD42100F0F7F9201CD4210A223EE00020D52100F0EFF90022414B1A7085
:405D4000231C66331B78934202D1FFF763FE01E0012B61D100223B4B67341A702378354C012B05D12378023213420DD113430AE0002B09D1022523782B4205D0322002F000
:405D80001FF92378AB4323702B4B2178187800F08EFC41E02B4B1A78002A01D000221A700020D42100F0B8F9FA220020D4219200254B00F0DDFD2FE0231C66331B78002B6E
:405DC00000D05DE7214B1B78002B07D1204B1B78002B03D11F4B1B78002B1AD00020FFF789FD154B197801234D081D406A000D1C1D401543042289080B409B0095431D43FE
:405E0000FFF708FE142002F0DBF8E8B2FFF772FD36E7FFF7FFFD33E773BDC0465C040020204E000041540000C7020020C8020020AC000020B9020020B8020020D002002046
:405E4000EA020020F702002001580000C3020020C4020020C502002008B5042908D1084A0020138BD0310133138300F055F906E0FA220020D4219200024B00F079FD08BDF5
:405E8000D002002001580000002010B5011CFEF729FE3220012100F0C1F90621122000F083F9142002F086F80020021C011CFEF7B3FD0C4BFE33DB8A5843000A80B200F03E
:405EC00053FB0021041C322000F0A8F90021122000F06AF9201C02F0BDFFC0B203F0DCFC10BDC04614030020002010B5011CFEF7F9FD3220012100F091F90621102000F037
:405F000053F9142002F056F80020021C011CFEF783FD0C4BFE33DB8A5843000A80B200F023FB0021041C322000F078F90021102000F03AF9201C02F08DFFC0B203F0ACFCD0
:405F400010BDC04614030020F8B51B4B1B78002B31D003F012FD061C002004F00BFE91300378002B24D0F023144F154D5B003978EC581A1CC13BFF3B032901D09C4308230E
:405F80009B201C43AC50400002F014F83A784023032A01D09C4310231C43F02302215B00EC500433EA580A43EA50EA588A43EA50301C03F0E6FCF8BDAC000020F30000203E
:405FC00000000A4038B50621051C00F0EDF80A2001F0F0FF0020021C011CFEF71DFD041C0021281C00F0E0F8054B0649FE33D88A054B6043000A584308F032FE80B238BD73
:40600000140300204D030000102700000C235943C20143029B1AC9180C4B0D4A5918FF238B72135C013BDBB213540A4A1378013BDBB213701378002B06D1074B1B78002B94
:4060400002D18022054B1A607047C0461C0100209C0200209D020020B804002080E100E0F0235843014B2030C018704700190000002310B59200934203D0CC58C4500433CA
:40608000F9E710BDF7B5051C0F1C019203F075FC0024061C0C236343EA016802821A9B180A4AE1B2D31808339B78DBB2BB4205D3019A934202D8281CFFF7A8FF0134202C57
:4060C000E8D1301C03F05DFCF7BDC0461C01002070B5061C0020FF2913D0031C0C225A43101C7502F201AC1A021906488218083292788A4204D00133202BEFD1002000E07A
:40610000012070BD1C01002008B5914203D2FF2A01D0FFF7B7FF08BDF8B5041C0D1C03F02CFC061CFF2D14D000200C234343E2016702BA1A9B18094AC1B2D31808339B781A
:40614000AB4203D1201CFFF761FF02E001302028EBD1301C03F015FCF8BDC0461C0100200648437A01301B0706D4054B58680002000CC0016130FF307047C046B8040020FD
:4061800040FF01000648437A01305B0706D4054B58680002000CC0016130FF307047C046B8040020C0FF01000309074A9B009A580F2318408000834010B5146881409C4397
:4061C000231C0B43136010BDF0EF0000074A03099B009B58021C19690F231A400E3B9340181C0840431E9841C0B2704714F100000F23094A0340000980008258012010B5CB
:40620000032498405B009C4099401061D068A0430143D16010BDC04614F100000F2203099B001040084A002907D0D15801228240101C0B681843086005E0D1580122824099
:406240000B6893430B60704714F10000F0B5C9B006AC061C0021201C802208F022FE0720022E00D98EE000252670211C28A880220095019508F00CFE444B26AF26937F23B1
:40628000434C7B60434E444B27603360C04623681B0F0F2B02D12568EDB204E023681B0F0A2B00D025680095009D002D66D103F064FB3A4A3A4B02A90C3202930392216096
:4062C0003849334B3160C0462168090F0F2902D11D68EDB204E01968090F0A2900D01D680195019B002B12D12F4D294925602F4D3560C04625682D0F0F2D02D10B68DBB291
:4063000004E00D682D0F0A2D00D00B680093009B002B18D1FF252649AD04269126992943244D269127601A493560C04625682D0F0F2D02D10B68DBB204E00D682D0F0A2D95
:4063400000D00B680093019B002B15D11A4D04A904950592216019490D4A3160C0462168090F0F2902D11368DBB204E01168090F0A2900D01368019303F003FB009B181E88
:4063800000D00C2040B249B0F0BDC046B6D70001080010400400104004000080B8040020B6E9000016000080B6E8000015000080B6D8000005000080B6EA000017000080F7
:4063C000302230B51E4CA3B0A36A051C9343203A1343A362703202A808F05AFD194B221C9D4201D8184B00E0184B00937F2301936B4617498B60174B4B60C046C046C04671
:406400008B680C241B0F18070A2B12D1124B2D041D436B4600958B60104B4B60C046C046C0468B681B0F1B071B1A591E8B415B421C403021936A60B28B43936223B030BD0E
:4064400000000340FF010000B6D70000B6D700010000104004000080B6D800000500008010B5041CA0B000216846802208F019FD201C6946FFF7A4FF002800D0052040B290
:4064800020B010BD30B5154AC47983790621904222D84278057812022A43114DAA421BD12102041C19430A34027A0A39231E0DD00023041C994209D0251A8D4204D2A57A2D
:4064C00001345B19DBB2F7E75B42DBB2D31A5A1E934106215B42194048B230BDFFFF010059430000021CF8B59179947A4079240209020143201C557AD37A28431B0403434D
:406500001C1C137B95781B0623435778D4782D023D4324042C43251C1479062024062C431ED0002B1CD0C9010D1C0E4C8035EE18A64215D81478281C002280335B1898423F
:4065400004D0057801305219D2B2F8E75242D2B20620944204D18131FF31081CFFF792FF40B2F8BDFFFF0100F0B5012485B00390631E0398029303F047F91F4FA300019394
:406580001437043BFD58061C291C02F059FC00282BD0019B301CDF59391C02F03DFC002823D0029B154A9B00D318291C301C9C6802F08CFF291C061C381C02F087FF011C8C
:4065C000301C02F05FFC0D4A019B944663449968051C201C02F07AFF011C281C02F044FE011C201C02F072FF03E001341D2CBFD1034805B0F0BDC046F0EF000070F0000091
:40660000000080BF031C37B501AC0D1C0B20191C221C022301F0C7F8002801D023882B803EBD30B5051C89B001AC221C00211C23512000F0F9FF221C2B1C13CA13C313CA85
:4066400013C3281C12681A6009B030BD07B500236A467620137053700121023300F0E4FF6B46FF205A781B7802401840000210430EBD07B500236A46742013705370012157
:40668000023300F0D1FF6B46FF205A781B7802401840000210430EBD07B5032201AB59709870191C76201A7001F05EF807BD07B5032201AB59709870191C74201A7001F096
:4066C00053F807BD002313B501AC0193994214D10121221C043301F066F8002801D103201DE0E2789207920F101E022817D0032A15D0013A5042504111E00121221C0423E4
:4067000000F092FF0028EAD0E3789B079B0F181E022804D0032B02D0013B5842584116BD07B50123692016216A4600F07DFF00280FD06B461A78B0231340202213436A4665
:406740001370162201A90A706920143A4B7001F00BF80EBD07B50123692016216A4600F063FF002814D06B4640221B7801A99343C03A13436032FF321340DA3A13436A4695
:406780001370162269200A70143A4B7000F0ECFF0EBD07B50123692016216A4600F044FF002813D06B4680221B78524213437132FF321340EB3A13436A461370162201A957
:4067C0000A706920143A4B7000F0CEFF0EBD37B5051CC823643DAAB2041C5B009A420BD8322102F0F3FA002089B2814219D1281C322108F035FA0BE0642102F0E7FA00207B
:4068000089B281420DD1201C642102F059FA03301823C0B201A94870022269200B7000F0A3FF3EBD70B5074D074A2B6C11889BB2041C161C8B4202D0642001F0BBFB2C648C
:40684000348070BD00000340FC0200200123F7B5404D414C6B6423700195019BDB6BA18C9AB289B21B041B0C914202D3802040021B1800265B1A9BB20093A2840C237343D5
:40688000364AD11808318978171CC9B2FF2926D0D058844600980530844503D9D058009D401B00E00020D0500C237343D058002815D12B4AFF259446FB189D7265461278E0
:4068C000013AD2B22A70274A944665461278013AD2B22A705A68002A01D05B6898470136202ECBD11F4E3378DBB2002B1ED000221D480C235343F91808318978FF2903D096
:40690000F958814200D2F8580132202AF1D1019AA38CD26B9BB291B21204120C8B4202D3802149025218D31A9BB200E00E480533984292D380B2E084A38CC01880B2FFF773
:4069400071FF002323703378002B02D18022074B1A60F7BD00000340B80400201C0100209C0200209D020020C0FF000080E100E0F0B585B0041C0E1C009202930020FF29BA
:4069800000D19BE0824200D198E002F0F6FFFF231F22039001930C210F1C5743D3B29C46E501630246485D1B7D194519AF7AFF2F01D16346019351436302E5015D1B4D194C
:4069C0004019837AB3420ED16A466346137115793C4A135D013BDBB213553B4A1378013BDBB2137005E0013AD5D2019D0027FF2D60D0E3010C220193019863021B1A684610
:406A00006A432F49D7180088CB1918810298009A58609E722D4B081C1B8853437B502C4B1B78002B3BD12B4B274EDB6B36789AB2002E23D026491B04898C1B0C89B291423C
:406A400002D3802252029B180C2255435B1A01996202521AAD1842599BB29B181C4A43514159D38C99421AD243599BB2D384938CD08CC01880B2FFF7D5FE10E0144B9A84DE
:406A80007858154B984200D9181C114B80B2D884801880B2FFF7C6FE8022104B1A600127084A135D0133DBB21355074A13780133DBB21370039802F064FF381C05B0F0BD01
:406AC0001C0100209C0200209D0200209E020020B804002000000340C0FF000000E100E038B50A4B051C1A680C1C01321A601B68012B04D9064A074B1A6001F079FA281C73
:406B0000211C054A054BFFF733FF38BDF80200200C3003C0041C0020DC050000E16A0000E02313B501A90B70022200234A204B70131C01F0A3FB652400282CD101F086FB9D
:406B4000830706D4013C002C03D0642001F032FAF4E701F07BFBFC239B00184202D000F045FD18E04A206946022201F04DFF6524002810D101F06AFBC30706D4013C002C13
:406B800003D0642001F016FAF4E701F05FFBFC239B001842E3D16B4618785B7800021843AF230349584308F05BF82D3816BDC046FFFF0000704708B50020FEF799F808BDFF
:406BC00008B50020FDF798FD08BD08B50120FDF793FD08BD9A235B005843024BC01804307047C046140300200A4B10B51A1C0A4CFC32D461D06A89002043D0620748F4336C
:406C00000958116080211A68C9020A4300201A6010BDC04600000A4000010400F4F000009A235B005843074B074A1B1800202933FF331871054BD96A0A40DA62044ADA6145
:406C40007047C04614030020771FAEFFFC000A4088E05100054B064A196800200A401A601968044A0A401A607047C046F4000A40FFFFFEFFFFFFEFFF104B002908D11049AE
:406C8000104A086802400A60D96A0F4A0A400FE001290ED10A490B4A086802408020C00102430A60D96A084A0A40802189000A43DA62064A0020DA617047C046FC000A40D6
:406CC000E4000A40FF00F8FFFFF5FDEF000A02109A235B005843074B074A1B1800202933FF335871054B0649DA61DA6A0A43DA627047C046140300207F0A2210FC000A40D8
:406D0000000A021008B50021FFF7B6FF044B054AD96A00200A40DA62034ADA6108BDC046FC000A40771EAAFF88E15500F0B505AC40CC079F25789A24640060430F4CD2B249
:406D40002418201C2934FF34A57023700C4D0D4BFC3047618800C0582B1CF8331860E02301201B01334001310343090419432B1CD0331960EE60E270F0BDC0461403002073
:406D800000000A40F4F00000F7B51F4B1F4D1A689A235B004343EB182933FF331B780195002B01D100202DE0002906D11F2308241340072B03D8211C01E0102400210A1CB8
:406DC0000B199A421DDA9A235B004343019DEB181E1CFC335B6929369C46FF3677780C4DBB006746DF59131D9B005F5173780133DBB27370737836789E42D3D90132D2B2EC
:406E0000DEE70120FEBDC046A0000A401403002000000A40F8B59A27384B394AD96A7F000A40DA62374A4743DA61374A1E1C9446D2192932FF32D178644649B2002905DA3C
:406E400080215A6AC9010A435A6254E02F49051C08682F4901400DD0D178281C0139C9B2D1708021DA6A89010A43DA623B590021984740E05170281C0121FFF785FF00280F
:406E800004D08022F36A52031343F362F36A214A21491343F3629A235B001A1C6A43A2182932FF3292780220012A02D14A68024301E04A6882436B43E3184A602933174959
:406EC000FF330A68DB78002B03D080231B03134301E0134B134080229A209202134300224000684320182930FF300271C278013AD2B2C2700B600120F8BDC046FC000A40B6
:406F0000FFDFFFFF98E0510014030020A4000A400100100088C0010000000A40F4000A40FFFFF7FF0221024A53688B435360704700000A4038B503F08DFE154A154B14685F
:406F4000011C1C408223151C021C75310978DB01234367326630002904D11178012907D1862303E00178012902D18E23DB0123434121094C2B60236812781B0C1B04194395
:406F8000037812025B0113430B43236038BDC046E4000A40FF00F8FFF4000A400223002931D007223333FF335843184BC150184B18491A60184B0A3A1A6001235B420B60B8
:406FC00016490A6016490B6016490A60164A1360164A174B1A600F22164B1A60164B1E32FF325A60154A9A60D96A154A0A40DA629A6C144992B29A649A6C0A439A64124BAA
:40700000124A1A60002358B27047C04614030020A8000A40B0000A40AC000A40C4000A40C8000A40B8000A40BC000A400F021000D8000A40E4000A40FC000A400A4041010C
:40704000000408C002000F7EF0000A404100410038B5002003F0FEFD031C91331B78002B21D07022114C236B93432363031C226272331B78012B16D167300578002D12D181
:4070800002F07BFC0A4B0B4AFC335D62D6230A495B00D150226B094B1340236380239B00236202F06EFC012038BDC046FC000A401403002000000A4000020080FFFDFFFFCF
:4070C000802210B5074C5203236832201343236000F070FF80222368520213430020236010BDC046F4000A40F7B5051C03F0B2FD031C91331B78002B00D17EE1031C021C64
:4071000072331B78BE4EBF4F6732BF4C012B00D086E0102139623B6B0B433B631378012B14D1BA69B94B13408022BB61BB6992001343E13AFF3ABB613A623B6B13433B6313
:4071400023689B0300D458E1BB6A4DE12168B04BBA691340F022BB61BB69120113436022BB613A623B6B1A43C0233A632268DB021A400B409A4200D0A1E0281C03F0A8FEFE
:40718000041C281C03F0BCFE322254436421604307F066FD9A232218D0435B006B439D49C017CB18FE331C8B104001910B2107F057FDA4B280B2211C000201F081FD041E15
:4071C000032C03D9FE2802D9FE2400E0042402F0D4FB9A235B005D43019B00905B19FC331A1C8D4B80255362BA698C4BAD001340802252051343BB61231CD6242B43640039
:4072000033510A2000F0D6FE3D623B6B2B433B6333591B0400D5EAE0009802F0B2FBECE0D82512786D007E4B012A00D0B4E07259953013401022735173597A491343735170
